:020000040800F2
:10C0000000F00020ADC00208BD810108C181010817
:10C01000C5810108C9810108CD8101080000000027
:10C02000000000000000000000000000D5810108B1
:10C03000D181010800000000D9810108DD810108DB
:10C04000E1810108E5810108E9810108ED8101082C
:10C05000F1810108F5810108F9810108FD810108DC
:10C060000182010805820108098201080D82010888
:10C070001182010815820108198201081D82010838
:10C080002182010825820108298201082D820108E8
:10C090003182010835820108398201083D82010898
:10C0A0004182010845820108498201084D82010848
:10C0B00051820108398801080D8B0108A58D0108FE
:10C0C000A98D0108AD8D0108B18D0108B58D01085C
:10C0D000B98D0108BD8D0108C18D0108C58D01080C
:10C0E000C98D0108CD8D0108D18D0108D58D0108BC
:10C0F000D98D0108DD8D0108E18D0108E58D01086C
:10C10000E98D0108ED8D0108F18D0108F58D01081B
:10C11000F98D0108FD8D0108018E0108058E0108C9
:10C12000098E01080D8E0108118E0108158E010877
:10C130002DE9F04F49F6C861ADF52B7DC0F6010140
:10C14000CB688A68086859914968A0AC0FC4599DAA
:10C150002869696903C44CF200014FF00060C0F621
:10C16000000108F07FFDF8F781F80B20F8F772F86E
:10C17000034658B949F64C76C0F6010698201E21B0
:10C1800040F2FF720096F8F75FF8FEE749F658763E
:10C190002020322100234FF6FF72C0F6010649F637
:10C1A00088750096C0F60105F8F74EF80023822145
:10C1B0004FF6FF7260200095F8F746F80720F8F771
:10C1C00049F84CF66469C2F20009C9F80000082079
:10C1D000F8F740F84CF28854C2F2000420600920BD
:10C1E0009294F8F737F84CF66068C2F20008C8F885
:10C1F00000000A20F8F72EF84CF65C67C2F2000740
:10C2000038600D20F8F726F849F6B071C0F6010144
:10C2100004224AF077FE4CF66862D0F1010038BF84
:10C220000020C2F2000243F2680A1070C2F2000A53
:10C23000CDF8A4A143F0DEFD24F0D0FC2AF0E4FC0C
:10C2400002238AF80030002040F076FB03460028E5
:10C2500047F0B38749F6B877C0F6010758201E218A
:10C260004FF4FC620097F7F7EFFF699B197843F2F0
:10C2700068030429C2F2000301D90220187046F2B3
:10C280000A1446F227164FF00008C2F200044FF4D9
:10C29000FA75C2F2000625804FF4FA6086F8008035
:10C2A00008F05EFE012041F08FFF46F2042529F0E0
:10C2B00029F94FF4E06008F019FCC2F200051E21D4
:10C2C0004FF0010B297505F1140085F8158085F8EC
:10C2D000168085F817B008F013FC46F2CA4A4FF0F2
:10C2E00080424720108540F2E733CDF818A04CF289
:10C2F00096574FF0850A938543F290140E97A2F853
:10C300000CB0A2F800A02CF05BFEC2F2000429F0F1
:10C31000EBF9DDF818E00E99B4F8F0C143F262676A
:10C320004FF48059C2F2000E10220423C2F2000121
:10C330000220C4F20109C2F200078EF800C0CDF855
:10C3400018E0A4F808330E9181F800B03870A4F812
:10C35000F482A4F8E0B24046C9F81020F7F77AFF5B
:10C3600045F231781FFA80FCC44515BF4CF2865A5D
:10C370004CF2865EC2F2000AC2F2000E12BFCDF885
:10C3800094A1CDF894E18EF800B025200121F7F7B3
:10C390005DFF01212520F7F759FF0020F7F75AFF2D
:10C3A0004BF2101A82B240F20111C2F2000A8A4224
:10C3B000CDF870A102D101228AF800204FF4805EEE
:10C3C000DDF894C1C4F2010E102045F6405BCEF8B2
:10C3D0001400C2F2000B9CF80010CDF848B146F2F0
:10C3E000271A46F2434E4BF6104C47F2ED0BC2F2C1
:10C3F000000AC2F2000EC2F2000CC2F2000BCDF82D
:10C4000048A0CDF860E0CDF880C0CDF84CB044F243
:10C41000026A44F2036E43F2200C47F2FE0BC2F2B2
:10C42000000AC2F2000EC2F2000CC2F2000BCDF8FC
:10C4300020A1CDF824E1CDF830C0CDF834B04CF2D5
:10C44000AE5A46F2324E47F2EC0C43F2940BC2F273
:10C45000000AC2F2000EC2F2000CC2F2000BCDF8CC
:10C4600084A0CDF850E0CDF820C0CDF824B043F240
:10C47000866A4CF2905E46F21E1C46F20E1BC2F219
:10C48000000AC2F2000EC2F2000CC2F2000BCDF89C
:10C49000F0A0CDF868E0CDF89CC0CDF86CB046F2C5
:10C4A0004E4A44F2106E4CF65A6C46F2CB4BC2F236
:10C4B000000AC2F2000EC2F2000CC2F2000BCDF86C
:10C4C00098A0CDF864E0CDF874C0CDF87CB046F209
:10C4D0004D4A46F2644E43F2F86C4CF2975BC2F25E
:10C4E000000AC2F2000EC2F2000CC2F2000B4FF0C2
:10C4F0000009CDF814A1CDF85CE1CDF8B4C0CDF8B9
:10C50000DCB043F2926246F245484CF2A45A43F240
:10C51000FB6E4CF64A6C4CF64B6B49450CBF102336
:10C520000E230020C2F20002C2F20008C2F2000A8A
:10C53000C2F2000EC2F2000CC2F2000B1370CDF872
:10C540005C90CDF8288122901E90CDF868A1CDF89E
:10C5500060E1CDF83CC1CDF8C0B044F20C6A46F2BF
:10C560000C1E43F2946C46F2F40BC2F2000AC2F2C3
:10C57000000EC2F2000CC2F2000BCDF8A8A0CDF85C
:10C5800014E0CDF834C1CDF8E4B04BF2282A46F2DD
:10C59000141E4CF6486C4CF6496BC0F6010AC2F208
:10C5A000000EC2F2000CC2F2000BCDF8F8A0CDF8DC
:10C5B0002CE0CDF870C0CDF8E0B04BF6EA4A4BF66F
:10C5C000EB4E46F2244C4BF67F5BC2F2000AC2F2FD
:10C5D000000EC2F2000CC2F2000BCDF840A0CDF864
:10C5E00058E0CDF81CC0CDF84CB145F6EB5A44F2FA
:10C5F000176E43F2640C4AF2FC7BC2F2000AC2F2EC
:10C60000000EC2F2000CC0F6010BCDF830A1CDF83F
:10C61000A0E0CDF82CC1CDF88CB145F67C4A45F6AA
:10C62000EC5E46F2D04C44F2111BC2F2000AC2F298
:10C63000000EC2F2000CC2F2000BCDF81CA1CDF826
:10C64000A4E0CDF844C0CDF894B04BF6145A43F2B0
:10C65000F96E46F2344C4CF22C6BC2F2000AC2F274
:10C66000000EC2F2000CC2F2000BCDF8BCA0CDF857
:10C67000F4E0CDF88CC0CDF8C4B04CF2286A46F690
:10C68000782E46F6842C4CF28E5BC2F2000AC2F27F
:10C69000000EC2F2000CC2F2000BCDF8D0A0CDF813
:10C6A000C8E0CDF8CCC0CDF890B04CF22E6A4CF278
:10C6B0002A6E46F6982C46F6A42B0023C2F2000AF6
:10C6C000C2F2000EC2F2000CC2F2000B0F93CDF8C2
:10C6D00008A1CDF804E146F2081ACDF80CC1CDF856
:10C6E00010B146F2221E46F2B84C4CF2306BC2F248
:10C6F000000AC2F2000EC2F2000CC2F2000BCDF82A
:10C7000054A0CDF8D8E0CDF880C1CDF850B146F2B4
:10C71000B64A46F2BA4E43F6385C4BF6805BC2F23C
:10C72000000AC2F2000EC2F2000CC2F2000BCDF8F9
:10C7300054A1CDF858E1CDF86CC1CDF89CB14CF2C4
:10C74000A55A43F2480E43F2027C4BF2111BC2F28F
:10C75000000AC2F2000EC2F2000CC2F2000BCDF8C9
:10C7600078A1CDF898E1CDF820C2CDF87CB146F2A1
:10C77000354A4CF6706E46F2B54C46F2B44BC2F2F6
:10C78000000AC2F2000EC2F2000CC2F2000BCDF899
:10C79000B8A0CDF8B0E0CDF854C2CDF888B145F6D8
:10C7A000EA5A43F2580E45F22C6C43F2241BC2F2B3
:10C7B000000AC2F2000EC2F2000CC2F2000BCDF869
:10C7C000C0A1CDF840E1CDF800C1CDF8D4B043F21E
:10C7D000636A43F2AC5E46F24C4C46F2374BC2F20F
:10C7E000000AC2F2000EC2F2000CC2F2000BCDF839
:10C7F00044A1CDF838E1CDF874C1CDF810B243F2C0
:10C80000FE6A43F26E6E43F2007C46F2364BC2F291
:10C81000000AC2F2000EC2F2000CC2F2000BCDF808
:10C82000F4A1CDF8CCE1CDF8B0C1CDF838B249F6DD
:10C83000AC7149F6F4724AF2080046F2384A46F200
:10C84000394E46F2414C46F23E4BC0F60102C0F66C
:10C850000100C0F60101C2F2000AC2F2000EC2F2EB
:10C86000000CC2F2000B969297908691CDF834A2FC
:10C87000CDF804E2CDF8E0C1CDF800B243F2646A2D
:10C8800043F2A45E46F23F4C46F2404BC2F2000A2D
:10C89000C2F2000EC2F2000CC2F2000BCDF8A8A149
:10C8A000CDF844E2CDF84CC2CDF8FCB146F23D4A99
:10C8B00044F20D6E46F23B4C46F23C4BC2F2000A8B
:10C8C000C2F2000EC2F2000CC2F2000BCDF8C8A1F9
:10C8D000CDF81CE2CDF8DCC1CDF8ECB146F23A4A15
:10C8E00046F2281E46F2424C44F2186BC2F2000A8D
:10C8F000C2F2000EC2F2000CC2F2000BCDF8F8A199
:10C90000CDF82CE2CDF8E8C1CDF8D4B143F6305AD9
:10C9100043F6375E43F2300C44F2196BC2F2000A60
:10C92000C2F2000EC2F2000CC2F2000BCDF83CA223
:10C93000CDF824E2CDF8C4C1CDF808B243F24C0AD8
:10C9400046F2444E46F24A4C43F2A55BC2F2000A5C
:10C95000C2F2000EC2F2000CC2F2000BCDF814A21B
:10C96000CDF8BCE1CDF890C1CDF8B8B146F2F00AEF
:10C9700046F2241E44F2126C4BF6144BC2F2000A2B
:10C98000C2F2000EC2F2000CC2F2000BCDF8ACA154
:10C99000CDF80CE2CDF840C2CDF8E4B14CF64F6AC8
:10C9A0004CF6426E4AF20C034AF2100249F69851D4
:10C9B00043F2846C4CF2915BC2F2000AC2F2000EA8
:10C9C000C0F60103C2F2000CC2F2000BC0F6010275
:10C9D000C0F60101CDF8F0A1CDF850E29993CDF861
:10C9E00078C29A929B9143F28E0ACDF818B146F222
:10C9F000CC4E44F2156C44F2046BC2F2000AC2F24F
:10CA0000000EC2F2000CC2F2000BCDF830A2CDF83D
:10CA1000D8E1CDF860C2CDF828B247F2041A4AF244
:10CA200014004AF2240343F24A0E45F6485C43F2EE
:10CA3000916B46F2101946F24828C2F2000AC0F67D
:10CA40000100C0F60103C2F2000EC2F2000CC2F2F5
:10CA5000000BC2F20009C2F20008CDF8D0A19C90F0
:10CA60009D93CDF8ACE0CDF8E8C0CDF8FCB00297CE
:10CA7000B4F9A071042F02D0189B00221A702CF078
:10CA800075FC30B1DDF880A09AF80010081C18BFC2
:10CA90000120069FB4F8F02197F800C013B2139F4D
:10CAA00043F2901B46F2CA4A63453870C2F2000B4B
:10CAB000C2F2000A57D0062B01F07382052B52DC1C
:10CAC000069F97F800C0BCF1050F4CD9A17C94F8E3
:10CAD00062B094F8B23094F8020141F0020C4BF0CD
:10CAE000020143F0020B40F00203AA7C95F810A06B
:10CAF00095F811E0EF7C84F8621084F80231698BBC
:10CB0000AB8BA4F8B0200120A4F810A084F812C0C8
:10CB1000A4F860E084F8B2B0A4F80071A4F84C1056
:10CB2000A4F89C3041F060FAAA7F002A01F0FC844E
:10CB3000DDF830A095F824C0298C688C95F82F205A
:10CB400046F20423C2F20003AAF80010AAF8040077
:10CB500085F825C012B1012283F8262024F07EFC3E
:10CB6000B4F8F02113B2B4F9400204281CBF069FA8
:10CB70003A70062BB4F9007102BF4FF0640AA4F8B2
:10CB80004CA0A4F89CA00B2F40F3B784012385F898
:10CB9000283043F081FB089F38700520F7F75AFBD7
:10CBA00020B9DDF824A09AF80C0058B9B9F800B003
:10CBB00046F210131FFA8BF1C2F2000311B14FF4C9
:10CBC00016721A80B9F8003099B2002900F0218558
:10CBD000DDF808C09CF8007087B1B4F9F00110B915
:10CBE0002CF0C4FB50B12CF0C1FB10B10D9A1178A0
:10CBF00021B9288B43F000FCA4F8180295F80CE04A
:10CC00005FEACE7110D5B4F9F0A1BAF1060F01F0C8
:10CC10000F85D62300200B210C2224F0C7F8DDF865
:10CC200038B002238BF8003049F07CFB95F82530B2
:10CC300046F2042AC2F2000A002B00F05B84B4F82A
:10CC4000F03143F2901BC2F2000B002B00F0528433
:10CC50001BB2012B01F0AC82052B01F06A8302208C
:10CC6000F7F7F8FA002841F09D82BBF904E2DDF8FD
:10CC700064A1179B0AEB4E0C5A1CBCF8181097B213
:10CC8000B94217971DD2BBF940124A9F04293B783D
:10CC900003F0058023B1BBF95422082A03F01D8557
:10CCA000DDF830C0B4F84C20B4F89C10ACF800208B
:10CCB000ACF80410012043F011FC25F04DFA0020DF
:10CCC00017901A9B4CF2905A1878C2F2000A38B1A9
:10CCD00027990F881FFA87FBBBF1000F01F0258011
:10CCE0002A78E2B9DDF808A09AF80000B8B194F803
:10CCF0005A0394F8BA1294F8CE2294F86E3320F0C6
:10CD0000020B21F0020E22F0020723F0020C84F83D
:10CD10005AB384F8BAE284F8CE7284F86EC31B9BCF
:10CD2000DDF83CA0B3F800C046F20E131FFA8CF7F2
:10CD3000BA45C2F200034ED0DDF864E02699BEF891
:10CD400000701A880F80199F002193B20620398045
:10CD50000F93F7F77FFADDF874B04CF65A6ABBF818
:10CD60000020C2F2000A2832904207D80620F7F7C6
:10CD700071FABAF80030283B984214D242F000F819
:10CD80000620F7F767FA1D9A94F838101080B4F966
:10CD90004C20002041F084FF012094F88810B4F961
:10CDA0009C2041F07DFF29F071FF2B78012B00F0D2
:10CDB000298383B9DDF87CA09AF800305BB9149A16
:10CDC0001078002801F05784DDF8DCC09CF80010D2
:10CDD000012901F050842CF0C9FA20B12A9B1F7858
:10CDE000032F40F29487DDF814E046F20C139EF80E
:10CDF00000B0C2F200030BF00F0007280AD995F823
:10CE000031A046F20422BAF1010F1B78C2F20002EF
:10CE100001F0098405980378077807F00F02072AC4
:10CE200000F2F08395F8312046F20423C2F20003A9
:10CE3000002A00F037851B78002B40F0E7832EF0A6
:10CE40008FF898F8000046F2482A0928C2F2000A32
:10CE500017D00B9A13881FFA83FBBBF1040F00F263
:10CE6000F385DDF82CA0BAF8002046F2141A93B22C
:10CE7000C2F2000A2BB1BAF8000081B2042941F2D3
:10CE80008981DDF808B09BF80030002B00F0F480B9
:10CE90000E9A11784CF29652C2F2000211B1022B96
:10CEA00001F0BD8344F0BCFC297B46F20423CA0791
:10CEB000C2F2000303D51878002841F0398395F8B1
:10CEC0002530002B01F03B8395F82530012B01F034
:10CED000488395F82530022B01F0568395F82530CC
:10CEE000032B01F06283287B46F2042A8307C2F2F7
:10CEF000000A40F10687470740F1FE86010740F12E
:10CF0000F68610F0100006D1B4F94032042B18BF99
:10CF1000012043F0E3FA25F01FF9002028F0CCF9B6
:10CF20002B7B9A060ED5DDF870A0B4F904029AF8AE
:10CF300000B00A284BF001028AF8002002DC389F7A
:10CF4000022139705B060FD5DDF870C0B4F904E238
:10CF50009CF80000BEF10A0F40F002038CF800308C
:10CF600002DC389902220A70109FDDF858E0109810
:10CF7000002397F800B04BF6EA4A9EF80070037061
:10CF80008EF80030C2F2000A24F09EFE002800F065
:10CF90005D86DDF840A09AF800305B4500F096868B
:10CFA000B4F94072042F00F09D86012043F096FAF8
:10CFB00098F80030032B00F2208403EB830204EB8B
:10CFC000021A9AF84EC04CF0020B8AF84EB0DDF807
:10CFD0002CA0BAF8000081B22A2940F247842B78AD
:10CFE000002B00F0498494F8BA2294F8CEE294F829
:10CFF0006E3342F0020C4EF0020B43F0020784F84D
:10D00000BAC284F8CEB284F86E730D9B93F800C058
:10D0100043F26263BCF1020F04BFDDF830A1B5F842
:10D0200018C0C2F2000308BF8AF800C0DDF808A0EB
:10D030009AF800200AB1501E1870289B01224FF068
:10D04000000A85F80CA01A7043F026F998F8001031
:10D05000089F0929387000F0F086DDF8A4B045F685
:10D06000EC5A9BF80030C2F2000A2BB1B4F950B16F
:10D07000BBF1000F01F0A982297821B9119802783B
:10D08000002A40F04986B4F90412119A00230A29B3
:10D0900013700DDDDDF894C044F211129CF80010FD
:10D0A000C2F20002032900F0A683012900F0A28346
:10D0B000B4F950E1BEF1010F00F0B8822CF056F93E
:10D0C00060B10D9A117849B9DDF8BCA0BAF800B08A
:10D0D000BBF5BE7F02D83D980223037095F82570FA
:10D0E000E7B1B4F8F03123B9DDF88CC09CF800103A
:10D0F000A1B198F800E0BEF1070F00F07085B4F818
:10D100004032002B00F0B5821BB2042B00F0AB8242
:10D11000012B00F01083042B00F0E68729F0C0F803
:10D12000DDF808B095F834009BF800A0BAF1010FC3
:10D1300002BF95F80CA04AF0080A85F80CA046F248
:10D14000042AC2F2000A002840F0818231780029C6
:10D150003FF48EACB9F800701FFA87FABAF1000FED
:10D1600000F08884B4F910004FF4167EA9F800E0AE
:10D17000002800F09C84B4F96020002A00F09E840E
:10D18000B4F9B010002900F0A184B4F90071002FA7
:10D1900000F0A4843378012B00F0A78404270A97B9
:10D1A0003178062900F0C78596F800C0BCF1020F5F
:10D1B00000F0A3873178032901F0CF8096F800B002
:10D1C000BBF1090F01F05B823078052801F0DB82AA
:10D1D00032780A2A01F0D6833378072B01F00B85C9
:10D1E0003378042B01F01D853078082801F02B8757
:10D1F0003278092A0DD0DDF848A09AF800B0BBF1CA
:10D200000A0F06D02C9FDDF8B8A000233B708AF8E7
:10D210000030B4F900110B291EBF2B9F4FF0190EDF
:10D22000A7F800E027F0BAFA228A43F29013C2F27C
:10D230000003002A40F07681B3F96000002840F036
:10D240007181B3F9B010002940F06C81B3F800018E
:10D250000FFA80FEBEF1090F40F36481A0F10C0CBF
:10D26000BEF10D0F1FFA8CFEC8BFA3F84012BEF12D
:10D27000010F9CBF4FF0010AA4F840A20222012036
:10D2800084F8422284F8562284F86A2243F026F970
:10D2900098F8003046F2482A052BC2F2000A00F046
:10D2A0009B81DDF808A09AF80010022955D0062BC2
:10D2B00000F0D486297B072B41F004022A7300F08A
:10D2C000E586032B00F2BF8696F800A0BAF1090F9D
:10D2D0000BD0129F3A780A2A07D03978052904D052
:10D2E00095F80CB04BF010002873032B11D8DDF823
:10D2F0001CC01CF803E0BEF1020F0AD896F800A08B
:10D30000BAF1090F00F09883129F3A780A2A00F0C8
:10D310009383287B40F002012973032B40F253834F
:10D32000062B00F0BB80B4F9F031042B01F08981A9
:10D33000B4F9500143F2901AC2F2000A30B93A9F90
:10D340004AF6552B3988594501F06A83DDF808A063
:10D35000012298F800308AF80020052B00F00A849A
:10D36000B4F9A011082900F03184297B41F00800AC
:10D370002873052B00F0258442F08EFF95F8363097
:10D38000834220D042F088FF90B198F80030092BFA
:10D3900009D003EB830004EB001ABAF93820022A03
:10D3A00001D042F09BFEDDF8FCA0FF218AF80010BE
:10D3B00043F0D4FFB4F940B2BBF1040F00F0FE8695
:10D3C000012043F08BF842F067FF218A85F8360090
:10D3D0000AB2002AB4F86000C8BF099F0FFA80FCA7
:10D3E000C8BF87F85010BCF1000FC4BFDDF824A0FF
:10D3F0008AF851000023337042F04EFF089F3870C6
:10D40000FFF736BBDDF87CA09AF80020002A41F037
:10D41000E681DDF85CC1CCF800202D994FF0010BBE
:10D4200081F800B000202CF05BF858462CF058F83A
:10D4300002202CF055F803202CF052F804202CF098
:10D440004FF805202CF04CF806202CF049F8072066
:10D450002CF046F808202CF043F80220F6F7FAFEEC
:10D46000002840F02786B4F9F001B0F1020E18BF91
:10D470004FF0010E04280CBF00230EF00103002B17
:10D4800040F01886DDF8DCA09AF80020012A00F0B0
:10D490000C86309F01212B7839708AE4079FB87978
:10D4A000022801F0B281B4F9F031A3F1020ADAF1F5
:10D4B000000040EB0A02042B08BF42F00102002AE0
:10D4C0003FF436AF079FB97901297FF42EAF96F864
:10D4D00000B0BBF1090F07D0DDF848C09CF800E0B0
:10D4E000BEF10A0F7FF421AF2D9F01233B7044F062
:10D4F0004BFE18E71793FFF7E4BB149ADDF884E0BE
:10D50000117846F23243002285F82820AEF8002038
:10D51000C2F2000300293FF43CAB1A7044F0A0F9BA
:10D52000FFF737BBB4F940A243F29013BAF1040FEE
:10D53000C2F200037FF4ACAE93F8F2B14FF00201F7
:10D540004BF00207A3F8F01183F8F2710AB9012039
:10D550001882B4F9602043F29013C2F2000312B9AA
:10D560000127A3F8607094F812E094F862B094F880
:10D57000B20094F8021194F83A7094F88A200223C9
:10D580004EEA030A4BEA030C40EA030E42EA030B9D
:10D5900041EA030084F8423247EA030184F8563234
:10D5A00084F86A3298F80030002784F812A0052B1E
:10D5B00046F2482AA4F8B070A4F8007184F862C05A
:10D5C00084F8B2E084F8020184F83A1084F88AB052
:10D5D000C2F2000A7FF465AE079F97F805C0BCF160
:10D5E000030F7FF45EAE42F0A9F92A7B9AF800306F
:10D5F00042F0080A85F80CA053E65A9A1378002BDB
:10D6000040F0A2812B78002B3FF419AC29F0CEF921
:10D6100015E40220F6F71AFE14200121F6F716FE93
:10D62000B4F950E1BEF1010F7FF448AD0320F6F7E5
:10D6300011FE002801F06B8094F852014FF00207B0
:10D6400040F00203A4F8507184F8523136E54FF0EF
:10D650000102A4F8502144F04DFE0023A4F85031FB
:10D660008AF8343072E53C98B0F90010002940F097
:10D670003B85B4F93800DDF8C4C0329FBCF9001016
:10D680003F56DDF8D0E001EB070CB4F84C20339F97
:10D69000BEF900B095F825A00FFA82FE37F8100009
:10D6A000C1EB0B0BCEEB0C074FEA4A0100FB07FC6A
:10D6B00001FB0BF10CF57E7E01F1070731EA210138
:10D6C00028BF39460EF10700DDF878B002EBE10A19
:10D6D0003CEA2C0C28BF84460AEBAC200FFA8BF1F5
:10D6E00002B201F10507BA420CDC05398A4209DBB6
:10D6F000249F3A7832B9DDF88CA09AF800100029FE
:10D700003FF406ADDDF830B0042BABF8000000F0BC
:10D710000687012042F0E2FE24F01EFD0C9ADDF89F
:10D7200090C0138800201E93B4F940328CF800009A
:10D73000012B7FF4F0ACB4F98800DDF808C1439FF9
:10D74000BCF900103F56DDF804E1B4F89C2001EB71
:10D75000070C449FBEF900B095F825A00FFA82FE91
:10D7600037F81070C1EB0B0BCEEB0C004FEA4A01FF
:10D7700001FB0BF107FB00FA01F107000AF57E77C8
:10D7800031EA210128BF0146DDF888E007F10700F2
:10D790003AEA2A0A28BF824602EBE10B0BEBAA22E7
:10D7A0000FFA8EF011B200F10507B9420CDC053812
:10D7B000814209DB249F397831B9DDF88CA09AF8D1
:10D7C000000000283FF4AAAC1BB2DDF830B0042BF7
:10D7D000ABF8042000F0AF87012042F07FFE24F078
:10D7E000BBFC0C9FDDF890C0B988002222918CF818
:10D7F000002093E4032313705AE4072B40F01F81A9
:10D80000079BD97903297FF4E2ABDDF834E09EF879
:10D810000000B0B1539A1778F80712D5B4F8F02188
:10D8200013B2012B0DD0DDF820B09BF8001041B9E8
:10D83000062A03F2B9864FF0064010FA03F243F1CC
:10D84000B386079F0023FB71DDF82CA003EB830256
:10D8500004EB8203BAF8000093F842E281B24EF082
:10D86000020C2A2983F842C23FF6B9AB23F0F6FD39
:10D870002B78002B7FF4B7AB98F80020082A00F033
:10D88000AA860A2A7FF4C1ABDDF81CA046F2244B1D
:10D890009AF80A20C2F2000B022A08BF8BF80A305D
:10D8A000FFF7B3BB93F832100120022983F831004F
:10D8B00000F0AD862D9F01313A7083F832102BF0C5
:10D8C000D3F9B4F9A03143F29012042BC2F2000252
:10D8D00000F08C864FF4A05EC4F2000EBEF828B0B3
:10D8E000B2F9B4111FFA8BF77B1CDDF8F8C05801B0
:10D8F000C21A3CF8117003EB820101FB07F2399860
:10D90000026027F0BBF82B7846F2042A012BC2F202
:10D91000000A0DD01F980278002A40F00087022BE1
:10D9200012D0012B04D0DDF87CA09AF800205AB95F
:10D930001499087800283FF465AEDDF8DCC09CF847
:10D940000070012F3FF459AE0220F6F783FC002847
:10D9500040F0FF82B4F9F0118F1E18BF012704298F
:10D960000CBF002007F00100002840F0F282DDF833
:10D9700050B09BF8003023B15A980278002A40F04A
:10D98000E882DDF8C0E001238EF800302B7846F203
:10D99000042A022BC2F2000A7FF44EAA099A92F8D6
:10D9A00000C0BCF1040F7FF431AE01278AF800708B
:10D9B000002004932BF094FD04998AF8001028F0BD
:10D9C000F5FFFFF73CBADDF81CB01BF80330032B62
:10D9D00032D13278092A03D0129F39780A292BD103
:10D9E000002094F83810B4F94C2041F059F9012086
:10D9F00094F88810B4F99C2041F052F9B4F9F00180
:10DA000043F290130628C2F2000315D0B3F9003197
:10DA10000B2B11D00A2B0FD0DDF888E19EF80030D7
:10DA200053B1279FDDF868C04FF06E0101223980A5
:10DA30008CF8002024F0A6F998F8003070E4092B47
:10DA40003FF4CDAAFFF7C3BA687B099F002107EB1B
:10DA5000800CDCF810E05F200B4640F20542CDF868
:10DA600000E01EF03BFB9AF8001009297FF4F9A9A9
:10DA7000FFF707BA012040F0A7FB129B83F800A034
:10DA800023F0ECFCDDF838A003208AF800002BF02E
:10DA90006DFC00283FF466AB27F0BAFDB4F9100026
:10DAA0004FF4167EA9F800E000287FF464AB27F05D
:10DAB000BDFBB4F96020002A7FF462AB012027F09F
:10DAC000B5FBB4F9B01000297FF45FAB022027F05A
:10DAD000ADFBB4F90071002F7FF45CAB032027F09D
:10DAE000A5FB3378012B7FF459AB239ADDF838E09E
:10DAF0001078DDF854C046F2344240F2DC5101287F
:10DB00008EF80030ACF80010C2F2000240F25B83E5
:10DB1000369F0020107038803BF04EFBB4F9F03196
:10DB200093B195F8263046F2042AC2F2000A002B7F
:10DB300001F02683012B0ABF95F82700288B288344
:10DB400042F05AFCA4F81802DDF854A1569F9AF846
:10DB500000B03B78DDF850A18AF800B0002B40F00F
:10DB6000768743F05FFD43F0F9FB002040F02CFB8B
:10DB7000FFF73EBB3778092F04D0129F38780A2868
:10DB80007FF4EEAB079F7B79012B12D0002B7FF443
:10DB9000F3AB96F800E0BEF1090F06D0129F97F89C
:10DBA00000C0BCF10A0F7FF4E7AB42F0F7FFFFF7CC
:10DBB000E3BB02202BF038FB98F80030052B7FF4F4
:10DBC000DBABDDF81CA09AF80530DFE7DDF818A123
:10DBD0009AF80020002A7FF4CCABFFF7C6BB079869
:10DBE000C279022A7FF48BAA1AB2A2F10203D3F1FE
:10DBF000000B4BEB0303042A08BF43F0010393B966
:10DC0000032A10D0194603EB830204EB820C9CF824
:10DC10004232DDF81CE043F002078EF807108CF862
:10DC20004272FFF76CBAB4F90472092F01F36E82E5
:10DC3000DDF84CA19AF8001011F00103E2D0089829
:10DC40000278002A41F062820323DBE724F05AF8CD
:10DC500000287FF49EA924F075F800287FF499A984
:10DC6000B4F9F0C143F29013BCF1060FC2F2000305
:10DC70003FF48FA9B3F91010A1F10202504240EB1A
:10DC80000203042914BF1A4643F0010212B1012114
:10DC90008AF80010B4F96000A0F10202D2F1000C81
:10DCA0004CEB020A042814BF53464AF00103002B30
:10DCB0003FF46FA9DDF840A0DDF858E09AF8003095
:10DCC00001215B458EF800107FF46AA9DDF858A0A9
:10DCD0009AF8000087423FF46BA9B4F94072042F10
:10DCE0007FF463A9002042F0F9FBFFF761B942F02D
:10DCF00055FF287BFFF705B943F030FB287BFFF782
:10DD0000FDB843F08FFC9AF80C00FFF7F4B801203F
:10DD10002CF05EFBFFF767B823F07EF8DDF808A073
:10DD200001278AF80070FFF7AEB924F015FA8AF8D7
:10DD300000B0FEF7D5BFDDF854B040F6B830029F12
:10DD4000ABF8000040F6C41ABBF8001004208AB2F9
:10DD5000524540F2AC85F6F77DFA8304F4D5B4F869
:10DD6000403202979F1E1FFA87FE01220E9F43F248
:10DD7000901196453A70C2F200017FF639AA98F8E0
:10DD80000030079A4FEA830CD25C0CEB03004FEA99
:10DD9000820E00010EEB020700EB870701EB070B79
:10DDA0009BF8120095F825A046F2042140F00200ED
:10DDB0008BF81200C2F20001BAF1000F40F01D858D
:10DDC0004FF0020BCDF888A081F825B02299DA46F1
:10DDD0001E914A9F397849B1B4F954B243F2901177
:10DDE000BBF1080FC2F2000101F0CE82BAF1030FBD
:10DDF00002D9012185F825100CEB030B0EEB020173
:10DE00004FEA0B1E0EEB810104EB010C40F0020007
:10DE1000072B8CF812000CF1100E7FF4E9A9022AEE
:10DE20007FF4E6A940F0020A8EF802A0DDF81CA0FB
:10DE300000238AF80730FFF7DBB90799487A0328EF
:10DE40007FF40BA9B4F90833072B01F0BC82DDF88D
:10DE50008CE103EB830C0EEB4C0A4B9F9AF80120EC
:10DE60009AF802B09AF803E03A7087F801B087F8A0
:10DE700002E095F8332046F2042AC2F2000A002A92
:10DE800041F05E8243F26400C2F200003AF020F8F2
:10DE9000B4F81C13DDF81CA10BB203EB430C03EB2D
:10DEA0008C0B1AF80B7043F29012C2F2000227B9E1
:10DEB000002B02DD4B1EA2F81C33479945F67C432C
:10DEC0000978C2F2000389B94E276F2020221F7003
:10DED00058706E2765209F70D8701A715A719A71A8
:10DEE000DA711A725A729A72DA721973DDF848E1AD
:10DEF000BEF8003033B3479945F67C4391F8B6102D
:10DF0000C2F20003F1B94E276F20202283F8B670C9
:10DF100083F8B7006E27652083F8B87083F8B900DE
:10DF200083F8BA2083F8BB2083F8BC2083F8BD2097
:10DF300083F8BE2083F8BF2083F8C02083F8C12077
:10DF400083F8C21000200146022221F02DF8FFF7CD
:10DF500084B8B4F904320A2B00F3EF81082B06DDF4
:10DF6000DDF860E19EF80010012900F0E6814F998C
:10DF7000012202200A70F6F76DF970B9DDF850C081
:10DF80009CF800704FB1379A137833B9DDF868B157
:10DF90009BF80010002942F0E585309F0020387082
:10DFA000F4E4012040F020F89AF80000489F05288A
:10DFB0009FBFBBF84CA0BBF89CB0A5F81AA0A5F871
:10DFC0001CB0218AB4F86030B4F8B020DDF824E148
:10DFD000B4F800B14FF0870A87F800A04FF064074B
:10DFE00000208EF8007029746B74AA7485F813B041
:10DFF00027F018F8012027F015F82878A8770028CE
:10E0000000F0F6830D9FDDF830A0DDF830E095F8E4
:10E0100025B097F800C0B4F8F021BAF800A0BEF817
:10E02000040000230221229385F826301E93A5F8D0
:10E0300020A0688485F824B085F8251085F82FC0C5
:10E0400013B2FEF73BBD0A2B7FF44AA9B4F940C2D4
:10E05000BCF1030F3FF744A9FFF736B9079FBA7920
:10E06000002A40F05481307809283FF417AADDF8DF
:10E0700048E09EF800B0BBF10A0F3FF414AA297BD8
:10E08000072B41F004022A737FF41BA9B4F9400264
:10E0900003287FF719A9DDF81CE09EF807B0BBF153
:10E0A000010F3FF61DA9FFF70FB95A990F78002FFE
:10E0B0003FF4EFA9B4F904320A2B00F36183082B73
:10E0C00007DDDDF860B19BF800C0BCF1010F00F086
:10E0D00057834F9801230370DDF8C0E000228EF8CB
:10E0E00000202B78FEF765BE3C99B1F90070012F36
:10E0F0007FF414A80423FFF71EBB98F800E00E9FDE
:10E100004FF00103BEF1090F3B7000F0A584DDF86C
:10E1100054B040F2DC52029FABF80020DA46BAF865
:10E12000001004208AB2B2F57A7F40F2B085F6F78B
:10E1300091F8C105F3D50297149F97F800A0BAF1A2
:10E14000000F7FF455A895F800B046F20423BBF108
:10E15000020FC2F2000301F04181BBF1010F01F097
:10E16000BD83BBF1000F03D026F00AFDFFF740B8D6
:10E170002BF012F90028F7D001202BF01BF9002812
:10E18000F2D058465946032220F00EFF26F0F8FC44
:10E19000FFF72EB84FF0000723F060F9AAF80070DF
:10E1A000FEF76FBEBBF940E2BEF1040F00F0C8827B
:10E1B0004FF0000BCDF85CB0FEF783BD002042F0BD
:10E1C0008DF9FFF700B936990F88B8B200B1137016
:10E1D000369A4FF01903029FDDF854A01380BAF865
:10E1E00000C004201FFA8CF2B2F57A7F40F2B685A7
:10E1F000F6F730F84304F2D594F85211B4F950010F
:10E20000029743F2901A41F00207C2F2000A84F822
:10E21000527120B9239F3A78002A00F0D6875B9F7D
:10E22000002343F2901A3B70A4F85031C2F2000A66
:10E230002BF09CF8002840F09B87297BBAF9F0016D
:10E2400041F0600702282F7300F09B86012041F007
:10E25000A5FABAF8F02113B2A3F10507D7F1000C23
:10E260004CEB0700022B08BF40F0010078B9539F28
:10E2700097F800B05FEA4B7009D40D9F39780029F8
:10E2800041F0CF85BAF904A2BAF1050F30DC042BB6
:10E2900008BFB4F8043240F079861BB2022BC8BF25
:10E2A00013B225DC3AB3042A01F04A820B276F73BC
:10E2B00041F0F2FF002801F0F386B4F904E2599F1F
:10E2C000B4F9181207EB4E0CBCF84400C1F19602E9
:10E2D00002FB00F148F2B51AC1F64E3A8AFB01ABD7
:10E2E000CB170B9FC3EB2B1EB4F9F031A7F800E05E
:10E2F000042B01F02582DDF850A09AF80030002BA5
:10E300003EF476AF5E9F02213970FEF771BF012A9D
:10E310007EF4D0AF96F800C0BCF1090F3EF4E0AF38
:10E32000129F97F800A0BAF10A0F7EF4C3AFFEF770
:10E33000D7BF00221792FEF7C4BC149B1F7827B1E9
:10E34000DDF8DCA09AF8000010B143F01DFF24E6D0
:10E350002BF0C6F843F018FF1FE6DDF854A040F29A
:10E36000DC57AAF80070029FBAF800E004201FFAF8
:10E370008EFCBCF57A7F40F28E85F5F76BFF830546
:10E38000F2D598F800200297079F02EB820317F856
:10E3900002A018010AEB8A0C00EB8C0104EB010EC1
:10E3A0009EF81230092A43F002008EF8120000F0A5
:10E3B0008686052A00F06486022A40F05485079B71
:10E3C0009F7846F22443C2F2000307B99A70539F24
:10E3D0003B78DB0718D5B4F8F00143F2901301B293
:10E3E0000129C2F200030FD006290DD0DDF820A0CC
:10E3F0009AF800E0BEF1000F06D1052904D018B14B
:10E40000B3F90412092902DD072A00F0A3872B784B
:10E41000B3B9A2F10801D1F1000C4CEB01000A2ABA
:10E4200008BF40F0010058B1DDF81CA046F22441BD
:10E430001AF802B0C2F20001BBF1010F01F0DB8754
:10E440000C2A00F2CD85079B995C9300981801EB8C
:10E450008107000100EB870004EB000B9BF81270B2
:10E4600046F2244047F0020702298BF81270C2F2EC
:10E47000000000F2F3870131052A815400F0F38790
:10E48000DDF81CA01AF802109F1801EB81004FEA7A
:10E49000071E0EEB800704EB070C9CF80A1043F2F2
:10E4A00090100F06C2F2000001F17384C8070AD56C
:10E4B00003EB020B04EB0B1A9AF80A10DDF81CA010
:10E4C00000200AF802008F0740F1A887092A00F00F
:10E4D000A887052A02D0079F0021B954079F9B18DF
:10E4E00017F802E01A010EEB8E0002EB80016318B0
:10E4F000987C40F001029A7400202AF05BFF00280B
:10E500003EF476AEDDF874B14E9F9BF800A017F88C
:10E510001A00DDF844A18AF80000FEF769BE002069
:10E5200041F0DCFFFFF7F8B826F0FEF9FEF700BB7C
:10E5300026F026FB95F82530002B7EF4C5ACB4F808
:10E5400040C2D8210CF5A06E40F26D101FFA8EF279
:10E55000A0AF00971DF0C2FD95F82530012B7EF489
:10E56000B8ACB4F840B2A0AF0BF5A06AD82106371A
:10E5700040F26D101FFA8AF200971DF0AFFD95F87A
:10E580002530022B7EF4AAACB4F8401240F26D1094
:10E5900001F5A06292B2D821A3AF00971DF09EFDB5
:10E5A00095F82530032B7EF49EACB4F840C2A4AF9E
:10E5B0000CF5A06E023740F26D10D8211FFA8EF2D2
:10E5C00000971DF08BFDFEF78EBC3FF007FB8AF82D
:10E5D00000B0FEF751BD079F46F22440397AC2F2DF
:10E5E0000000022908BF0372FEF70FBDB2F9B43173
:10E5F000DDF834A139980AEB830E3AF823B0BEF85F
:10E6000002700BFB07714A100260FFF77AB9DDF860
:10E61000B4C083F832208CF80000FFF750B94B1CCF
:10E620001370FEF73FBC002182F83110FEF7F2BBF9
:10E6300000204FF4C871D622D72322F0B7FBFEF793
:10E64000E8BA012041F0AAF80D9F012197F800A037
:10E65000259F3970BAF1000F7EF46AAEB4F9042236
:10E660000A2A3EF765AE0620F5F7F0FD2F9FA7F8C2
:10E6700000A0FEF75DBE43F087FDFEF7ACBBB4F92A
:10E68000F031002B70D12AF071FE00286CD198F87F
:10E690000030062B01F04381B4F900E143F2901AF7
:10E6A000BEF10B0FC2F2000A02DD032B00F0A687B9
:10E6B000DDF850A09AF80000002800F00F82062B29
:10E6C00001F0A180DDF8B0A09AF80020012A00F046
:10E6D0008485022A40F03682012B40F23382062BD9
:10E6E00000F01F82DDF8B0A14FF61A4BBAF8001007
:10E6F000CFF6FF7B0FFA81FE43F20073DE45C2F2D4
:10E700000003FEF675AD01391980FEF771BD0220D8
:10E71000F5F7A0FD00287EF4D1ACFEF78DBF459F34
:10E7200001233B7004202AF0DBFE00219AF8003020
:10E730003970FFF7F4B8002041F0D0FEFFF74FB872
:10E740003C9B1B88002B41F0C6819AF8307047F043
:10E7500001038AF83030032B7EF4B3AA002185F838
:10E7600030101791FEF7ADBA2AF000FE28B1DDF89F
:10E7700034A09AF80000002889D198F800308BE77F
:10E7800043F002FDA8E498F800100E9F0123092928
:10E790003B7001F08786DDF854E040F2DC52029FC6
:10E7A000AEF80020F246BAF800E004201FFA8EF11D
:10E7B000B1F57A7F40F24987F5F74CFDC304F2D5F5
:10E7C00002972C9F4CF670633A78C2F20003002A3D
:10E7D00000F0188582F003001870FEF71ABD459FFF
:10E7E00004203B702AF07CFE00203870FEF715BE36
:10E7F00026F0C6F926F076FA04E40AF101075FFA7A
:10E8000087FA81F825A0FFF7E4BA96F800A0BAF1DC
:10E81000090F07D0DDF848E09EF800B0BBF10A0F01
:10E820007EF441AEB4F9502143F29013C2F20003DA
:10E8300012BBB3F9F011A1F10202D2F1000C4CEBC2
:10E840000200042914BF034640F00103002B41F0ED
:10E85000EC86B4F904A2BAF1070F0DDC288B41F065
:10E86000CBFD4FF00101A4F85011A4F8180243F0B9
:10E8700041FD0023A4F850312AF078FD80B10D9FAE
:10E880003B786BB9B4F918B2DDF8BCE00BF5BC719C
:10E89000BEF80000CA1C904242F393813D9F3B703A
:10E8A00098F8000006283EF4FEADFEF73CBD7D2042
:10E8B000029746F2081A3FF0D7FE012026F0FCFC32
:10E8C000C2F2000A3B9440F6C41B029F159C04E070
:10E8D0000420F5F7BFFC800419D4208883B2002BF4
:10E8E00000F00085BAF800108AB25A4500F2FA84A6
:10E8F000BAF8002040F6461390B29842E8D80020BB
:10E9000026F0DAFC0420F5F7A5FC8004E5D53B9C55
:10E9100043F29013B4F840220297901E81B201296D
:10E92000C2F200037EF664AC98F800E0079F0EEB9D
:10E930008E0217F80EC012010CEB8C0A02EB8A0053
:10E9400003EB000E9EF812B095F8251046F2042352
:10E950004BF0020C8EF812C0C2F2000311B100217C
:10E9600083F8251094F86A12DDF81CA041F0020328
:10E970000722022088F800208AF8070084F86A320B
:10E98000FEF736BCB4F9F011002940F0F0802AF00F
:10E99000EDFC002840F0EB8098F800B0BBF1060FCA
:10E9A00001F01583B4F9002143F2901A0B2AC2F248
:10E9B000000A00F3EF80149F3B78002B00F0F580F5
:10E9C000BBF1060F01F0B3822E9F397819B1BBF16C
:10E9D000060F01F0D082DDF8B0A09AF80030012BCC
:10E9E00000F0C685022B40F0AC8398F80030012B74
:10E9F00040F2A783062B00F09383DDF8B0A140F22C
:10EA0000E63BBAF8002043F200730FFA82FCDC45C3
:10EA1000C2F200033EF7ECAB01321A80FEF7E8BB0E
:10EA20003AF0CAFBBAF8180241F094FC288342F08D
:10EA300095FC2AF09BFC18B142F0F4FDFEF786BC71
:10EA4000022041F04BFD42F0EDFDFEF77FBC2B7044
:10EA500026F096F8FFF785B8B4F908A343F29013AF
:10EA6000BAF1040FC2F200037FF451ABB3F9E02214
:10EA7000DDF81CA0002A02F022869AF8090003287B
:10EA800005F00C870120B4F81CA326F0E5FF629F77
:10EA900043F290133A780A90C2F2000352B15FFA3F
:10EAA0008AF1DDF81CA0A3F81C1303238AF80930AF
:10EAB00027F09EF894F8E23294F8F62294F80AB31C
:10EAC00043F0020C42F0020E4BF0020084F8E2C266
:10EAD00084F8F6E284F80A03FEF76CBB062B7FF499
:10EAE000F1ADDDF81CA09AF80620002A7FF4EAAD0B
:10EAF000659F397800293FF4E5ADDDF810A29AF85A
:10EB00000020002A3FF4DEAD7D9F43F2FE633A7899
:10EB1000C2F20003002A3EF42FAC013A1A70FEF74D
:10EB20002BBC079FBA79012A7FF4DCADDDF870A118
:10EB30009AF80030002B3FF4D5AD5F9F387800285D
:10EB40003FF4D0AD01202AF035FC002800F0D78535
:10EB5000B4F81C2343F2901310B20028C2F2000351
:10EB600041F33081013AA3F81C23FEF741BB2AF0A0
:10EB7000FDFB20B10D9F387800287FF40DAFB4F96C
:10EB8000002143F2901A0B2A98F800B0C2F2000A52
:10EB90007FF711AFBBF1030F01F06A81DDF850A0E0
:10EBA0009AF80030002B7FF40BAFBBF1060F7FF417
:10EBB0000BAF079FBB79002B7FF406AFDDF894C144
:10EBC0009CF8001000293FF4FFAE849F3B78002B97
:10EBD0003FF4FAAEDDF8F4A143F2FE639AF80000C8
:10EBE000C2F2000300287EF4C7AB01221A7098F825
:10EBF0000030FEF7BEBB98F8002046F248230C2AEE
:10EC0000C2F2000340F206862978012901F0A080B3
:10EC1000022901F053820A2018703378042B7EF405
:10EC2000E3AADDF854A040F2DC57DDF838E001211A
:10EC3000AAF80070029F8EF80010BAF80020042095
:10EC400091B2B1F57A7F40F2A087F5F703FB400659
:10EC5000F3D598F800200297032A04D1079FF8788B
:10EC6000012801F0928600202AF0A4FB002800F081
:10EC70000E84DDF874E14E9F9EF800A0202107F875
:10EC80001A10DDF844A18AF80010FEF7B1BA7D2011
:10EC9000029746F2081A3FF0E7FC012026F00CFB31
:10ECA000C2F2000A3B9440F26A3B029F159C04E0CA
:10ECB0000420F5F7CFFAC2051AD4218888B20028BB
:10ECC00000F04585BAF800E01FFA8EFCBCF57A7FAB
:10ECD00000F23D85BAF800E01FFA8EF05845E7D8FB
:10ECE000002026F0E9FA0420F5F7B4FAC205E4D5CD
:10ECF0003B9C0297B4F9A071062F01F02181B74F18
:10ED00005A2140F2054200230F2000971DF0E6F93A
:10ED10004FF4617006F024F90023022004213370BF
:10ED2000F5F794FA029F3278002AFCD0DDF898A11A
:10ED300046F2271B00230122C2F2000B18468BF873
:10ED400000308AF80020029726F0B6FA4FF41671C8
:10ED5000A9F8001098F80030FEF70BBB7D20029751
:10ED600046F2081A3FF080FC012026F0A5FAC2F214
:10ED7000000A0A9440F26A3B029F159C04E00420BA
:10ED8000F5F768FA42041AD421888AB2002A00F002
:10ED9000CF85BAF800C01FFA8CF0B0F57A7F00F288
:10EDA000C785BAF800E01FFA8EF05845E7D8002072
:10EDB00026F082FA0420F5F74DFA4204E4D598F8DB
:10EDC00000E0079B029713F80EC00EEB8E07380188
:10EDD0000A9C0CEB8C0200EB820104EB010B9BF80C
:10EDE000123043F2901A43F002078BF81270C2F20D
:10EDF000000A2AF0D1FA002840F0EA83BAF9F011AB
:10EE0000062900F0E58398F800B046F2482AC2F2DD
:10EE1000000ABBF1000F40F0C383079B1F78022F4D
:10EE200002F0A682B4F90021092A40F373815A4600
:10EE300094F8623002EB820743F0020004EB071CF7
:10EE400084F862009CF83AE0A17C079F4EF0030B27
:10EE500041F002034FF0020E07F802E0A3748CF8B1
:10EE60003AB0FEF7C5B9032A40F09481DDF81CA042
:10EE700046F224439AF80310C2F20003002940F03E
:10EE80007682B4F900B1BBF10B0F41F32681012268
:10EE9000DA70FEF7ADB97D20029746F2081A3FF00E
:10EEA000E3FB012026F008FAC2F2000A3B9440F28C
:10EEB0006A3B029F159C04E00420F5F7CBF980051E
:10EEC00019D4218888B2002800F00F86BAF800E033
:10EED0001FFA8EFCBCF57A7F00F20786BAF8002094
:10EEE00093B25B45E8D8002026F0E6F90420F5F758
:10EEF000B1F98005E5D598F800300297079F03EB3C
:10EF00008301FA5C09013B9C02EB820E01EB8E0C43
:10EF100004EB0C0191F812B0B4F900014BF0020EB1
:10EF20000B2881F812E00DDDDDF850A09AF8000002
:10EF300010B95A9F397829B1032B01F048850A2B63
:10EF400002F0F5802AF028FA002840F00786B4F98C
:10EF5000F071062F00F0028698F80030002B40F088
:10EF6000F6850122AA7094F80622062788F8007018
:10EF7000079F42F003010123BB7184F80612FEF7DC
:10EF800037B9DDF89CE101228EF800202AF0EEF975
:10EF9000002800F0A087DDF84CA19AF8003059074E
:10EFA00000F19187089F3A78002A40F03687B4F93B
:10EFB0000402DDF8B4C00A28DEBF2F9F4FF0000A1C
:10EFC000A7F800A001218CF8001043F0DDF8B4F898
:10EFD0000432B4F8F021FFF760B900BF149F0108B4
:10EFE0000D3A5000DDF8D4A081180AEB810359795D
:10EFF00001297FF681AA072993F80BC094BF4FF02F
:10F00000000A4FF0010A4CF0020B042914BF5146CC
:10F010004AF0010183F80BB0002900F054851979FA
:10F02000032908D801315FFA81FEBEF1040F83F88D
:10F0300004E07FF461AA359F831807EB8300002268
:10F040000271FFF759BA98F8003046F2482A0C2BA3
:10F05000C2F2000A40F241862A78012A00F0C087F5
:10F06000022A7EF4C5A8099F3A78042A02F0B785DF
:10F07000102B02F0AF85591C8AF80010FEF7B8B8C3
:10F08000B4F9A031A3F10500D0F1000C4CEB000164
:10F09000072B08BF41F00101002940F08381082BB4
:10F0A00000F08081062B7FF492A9DDF81CA08AF87D
:10F0B0000510DDF81CA09AF80530FEF767BDBAF11F
:10F0C000030F7FF484A92AF067F9002842F09285A3
:10F0D00094F8F6E2B4F9F02143F290134EF0020BEB
:10F0E000062A84F8F6B2C2F2000318BF98F800208E
:10F0F0007FF45FA9B3F9E01298F80020012904BF5A
:10F10000DDF898A18AF80010FFF753B900231946DB
:10F11000FEF779BD584625F085FF9AF8002087E66E
:10F12000079FB97901297FF468ACDDF870A19AF8DE
:10F130000030002B3FF461AC5F9F387800283FF42B
:10F140005CAC01202AF036F9002800F0CD86B4F836
:10F150001C2343F290130FFA82FEBEF10D0FC2F290
:10F16000000300F3B485511CA3F81C13FEF740B84C
:10F1700026F04EFABAF80432BAF8F021FFF78DB84B
:10F180006099088841F0E6F89AF82630AAF8180045
:10F19000FEF7D0BC062A7FF41AA9B4F9F0110629AB
:10F1A00000F0AA87DDF81CA046F224439AF806B0C6
:10F1B000C2F20003BBF1020F7FF409A904293FF456
:10F1C00006A903209871FFF702B943F06FF84FF0DA
:10F1D000010EAAF850E1FEF70BB8012B7FF6B2AC96
:10F1E000062B01F00280DDF8CCA143F26E639AF8A1
:10F1F0000020C2F200030AB1511E197042F012FA47
:10F20000FDF7F6BF98F80010072900F0828727F075
:10F210004DF900287DF4ECAF208AB4F86010031C8F
:10F2200018BF012309B10133DBB2B4F9B0200AB130
:10F230000133DBB2B4F80021002A00F0888712B253
:10F24000A2F10B0EDEF1000B4BEB0E0E0D2AC8BF28
:10F250004EF0010E0133DBB2BEF1000F01F0C483AA
:10F26000002801F0C183591ECBB2022B40F27287F5
:10F2700098F80030DDF81CA003EB83011AF803C0F6
:10F2800009010CEB8C0E01EB8E0204EB020B9BF8D8
:10F290001210B4F8400241F0020E43F29012C2F292
:10F2A00000028BF812E001B2002B02F0CD84012B9A
:10F2B00002F06384022B42F00683B2F9B02012B14F
:10F2C000022942F06284072788F80070079F002116
:10F2D000F971022084F8420284F8560284F86A0226
:10F2E000FDF786BF3C2002973B9C3FF0BDF9DDF85F
:10F2F00054A0BAF800301FFA83FBBBF1000F7DF475
:10F3000053AF98F8000001230E9F46F2482A984216
:10F310003B70C2F2000A43F26080062801F0ED87DC
:10F3200009283DF441AF2C9F4CF670633A78C2F245
:10F330000003002A01F0688600211970FDF769BFFB
:10F340000020014603221FF02FFE00208AF8330020
:10F35000FEF798BD079F46F22443F879C2F20003F6
:10F3600002287FF454A80321D971FFF750B802296D
:10F370007FF42DA8B4F900C1BCF1090F7FF727A8CD
:10F380000021D970FDF734BFBAF1020F7EF42EAD23
:10F39000B1F9A01104293EF72FAD032185F82510FE
:10F3A000FEF72ABD079F46F224437A79C2F2000392
:10F3B000002A40F0F6840121DDF81CA059719AF86A
:10F3C0000530FEF7E3BB4B98422749214E230770D7
:10F3D0004170837080F803A0FEF74BBDB4F9F011C3
:10F3E000062900F0FC8629F0D7FF002841F00F83A2
:10F3F00025F09AFAB4F8002143F290130A3A90B239
:10F400000128C2F2000305D9B3F9F0C1BCF1040F21
:10F410007DF4EEAE21F000FDFDF7EABE092A7FF48F
:10F420005DA8DDF81CA046F224419AF809C0C2F29A
:10F430000001BCF1030F7FF451A8B4F9087343F243
:10F440009010072FC2F200007FF448A8B0F9E00244
:10F4500000287FF443A84872FFF740B80027052A28
:10F4600087547FF40DA8B4F9A001042801F069873E
:10F47000DDF81CA046F224409AF80510C2F2000004
:10F4800002297FF401A803214171FEF7FDBF98F81E
:10F490000030092B01F0E2800B2B01F0CE80052B10
:10F4A00001F0E78522F04EFC98F8003010B1012BF6
:10F4B00042F20E83B4F900110B2901F0C885092B23
:10F4C0003DF496AEB4F8F021062A3DF491AE95F8DD
:10F4D000261046F20423C2F20003002941F05986A7
:10F4E00093F80CB001204BF0600C83F8260083F8F1
:10F4F0000CC072B1188B962803F27E81609F388011
:10F5000095F827E0DDF808A00222A5F818E08AF8AF
:10F510000020032029F088FE21F0A0FFB4F924C0C8
:10F5200043F29013BCF1020FC2F200037DF760AE0C
:10F53000B3F95021002A7DF45BAEB3F9F001A0F1DC
:10F540000202D2F1000B4BEB0201042814BF0B4660
:10F5500041F00103002B3DF44BAE0220F4F77AFE9C
:10F5600000287DF445AE012385F83430FDF740BE18
:10F5700098F80030012B7FF6E4AD062B01F0E98509
:10F58000DDF8CCA143F26E639AF80020C2F20003CA
:10F59000352A01D801321A7042F044F8FDF728BE2E
:10F5A000BBF1010F00F01C84B4F9107043F290130A
:10F5B000C2F20003002F40F0F186B3F96010002979
:10F5C00000F0B285012202208AF80020A8702FE402
:10F5D000012029F0EFFE00283FF415AC0020014681
:10F5E00003221FF0E1FCB4F9F00106287FF40BAC14
:10F5F000DDF898A101228AF8002004E4079FF8783A
:10F6000001287FF455A8149A1778002F02F0F4808F
:10F61000DDF884A04CF2AE53BAF80020C2F2000329
:10F62000052A04BF022119800AD0322A03F0698119
:10F63000B2F5FA7F04F04F81012A01D952081A80ED
:10F640005E9F01233B70FDF797BE7D20029746F237
:10F65000081A3FF009F8012025F02EFEC2F2000A38
:10F660003B9440F26A3B029F159C04E00420F4F7AF
:10F67000F1FDC30419D421888BB2002B00F0C88699
:10F68000BAF8000082B2B2F57A7F00F2C186BAF809
:10F6900000C01FFA8CF05845E8D8002025F00CFE79
:10F6A0000420F4F7D7FDC304E5D5297846F20423F6
:10F6B00002973B9CC2F20003002900F07A86099F62
:10F6C00000203A7883F82C00032A83F82D0001F2F9
:10F6D0004586022903F02882B4F9F001531CDDF8B5
:10F6E00024A0DAB2062843F294038AF80020C2F27A
:10F6F000000300F05E8325F0F5FAFDF779BD29F0EF
:10F7000059FE002800F08E84519943F263620B7811
:10F71000C2F20002A3F1420A5FFA8AF7182F01F23F
:10F720004482581EC3B21370DDF874A14E9F9AF83C
:10F730000010002007F8113029F056FEFDF758BDE3
:10F7400002203EF0A9FF21F0E3FAFEF7D4BD3C20F1
:10F7500002973B9C3EF088FFDDF854A0BAF80030D9
:10F760009AB2002A7DF426AD98F80010959801EB26
:10F77000810C90F800B004EB0C10877CDDF81CA025
:10F7800047F0020390F82670837447F0020380F874
:10F790002630629F90F83A301AF801E097F800A0FE
:10F7A00043F0020780F83A7046F2244385F82DE0D2
:10F7B00009274FF0040E85F82C10C2F2000388F8D8
:10F7C0000070A4F8E022A4F808E3A4F8F4B2BAF1B7
:10F7D000000F42F0778101275F7294F8F60294F8E7
:10F7E000E22294F80A3340F0020742F0020143F0AB
:10F7F000020B84F8F672032784F8E21284F80AB345
:10F800000A97FDF7D7BC079FBA79012A7FF46DA943
:10F81000FDF7B2BDDDF81CE002EB82011EF802B07C
:10F820000A010BEB8B0C02EB8C0004EB000E9EF834
:10F8300012A000204AF002018EF8121029F0BAFD41
:10F8400040B15D9F46F24C433A78C2F20003002A71
:10F8500041F04987DDF850A09AF80030002B00F005
:10F86000E782379F3B78002B40F0E282B4F9002119
:10F870000B2A98F8002002DD032A02F0CF87092A1C
:10F8800000F0DB820A2A01F0CB83092A00F0DC8237
:10F890002978002901F0BC83002A42F06F821346C8
:10F8A00088F80020DDF81CA002EB82011AF803B0F2
:10F8B00004EB011E9EF84EC003EB83030BEB8B029F
:10F8C000180100EB82014CF0020B63188EF84EB069
:10F8D0009A7C42F003019974FDF782BC98F80030DD
:10F8E00046F24822102BC2F2000201D910231370F5
:10F8F000DDF824A09AF80000042801F060800D2BA8
:10F9000001F03A840B3BD9B2012902D80A2088F8C9
:10F91000000002232B7025F033F9FDF769BC079F27
:10F9200097F806C0BCF1020F7EF4B6AEFDF724BD19
:10F930003C2002970A9C3EF097FEDDF854E0BEF8AA
:10F9400000701FFA87FABAF1000F7DF427AC099F07
:10F950005046D7F854C0CC2140F20C425346CDF863
:10F9600000C01CF0BBFBD7F858E05046C12140F264
:10F970000C425346CDF800E01CF0B0FBD7F85CB069
:10F980005046B62140F20C425346CDF800B01CF070
:10F99000A5FBD7F860C05046AB2140F20C4253465D
:10F9A000CDF800C01CF09AFBD7F864E05046A021C7
:10F9B00040F20C425346CDF800E01CF08FFBD7F824
:10F9C00068B05046952140F20C425346CDF800B045
:10F9D0001CF084FBD7F86CC050468A2140F20C42E0
:10F9E0005346CDF800C01CF079FBD7F870E05046C4
:10F9F0007F2140F20C425346CDF800E01CF06EFB34
:10FA0000D7F874B05046742140F20C425346CDF8FA
:10FA100000B01CF063FBD7F878C05046692140F273
:10FA20000C425346CDF800C01CF058FBD7F87CE0E0
:10FA300050465E2140F20C425346CDF800E01CF0E7
:10FA40004DFBD7F880B05046532140F20C4253464C
:10FA5000CDF800B01CF042FBD7F884C050464821D6
:10FA600040F20C425346CDF800C01CF037FBD7F8EB
:10FA700088E050463D2140F20C425346CDF800E06C
:10FA80001CF02CFBD7F88CB05046322140F20C42CF
:10FA90005346CDF800B01CF021FB4FF4967005F0F2
:10FAA0005FFA029F86F800A03378002BFCD0012279
:10FAB000029710462A7327270A973EF095FA21F0FD
:10FAC000CDFCFDF76DBB1A79002A40F003830121BC
:10FAD0001971FEF711BD012B9AF8303004BF43F0C5
:10FAE00002038AF83030FEF736BE3C2002973B9C7A
:10FAF0003EF0BAFDDDF854A0BAF800309AB2002A00
:10FB00007DF45CAB5498DDF838A0077801214CF205
:10FB100030638AF80010C2F20003002F01F04D8517
:10FB200098F800001A70092806D00B9A06214FF0A9
:10FB3000500A6973A2F800A0869F9920D82140F24C
:10FB40000542002300971CF0C9FAFDF737BB012BD3
:10FB50007FF409AA0220A870FFF705BA012029F056
:10FB600029FC00283FF4F8A90020014603221FF0D9
:10FB70001BFAB4F9F01106297FF4EEA9DDF898A17B
:10FB800001238AF80030FFF7E7B97D20029746F29B
:10FB9000081A3EF069FD012025F08EFBC2F2000A32
:10FBA0000A9440F26A3B029F159C04E00420F4F79B
:10FBB00051FB43061CD4B4F800E01FFA8EF1002973
:10FBC00000F05D87BAF800301FFA83FCBCF57A7F3D
:10FBD00000F25587BAF800E01FFA8EF05845E5D8D4
:10FBE000002025F069FB0420F4F734FB4306E2D53E
:10FBF000002002970A9C29F0DDFB002840F0AE8629
:10FC000098F80030092B02F07581052B01F09887D8
:10FC1000079F03EB8300FA5C010102EB820A01EB10
:10FC20008A0004EB000B9BF812C02A7843F2901A6A
:10FC30004CF0020EC2F2000A8BF812E0002A41F0EA
:10FC40007A86A3F10B0EDEF10001A3F10D025FFA3B
:10FC500082FB41EB0E00BBF1080F98BF40F00100A2
:10FC6000002841F09E870C2B01F09B87092B3DF467
:10FC7000BFAADDF824A043F294039AF80C00C2F264
:10FC80000003002841F09B8701210B9F19734FF05F
:10FC9000500E03236B73A7F800E0FDF7A9BA23B158
:10FCA000BBF95422082A01F0DD853C9F3B88002BDC
:10FCB00000F01B82012B02BFB4F84C00DDF830A02D
:10FCC000AAF80000002040F009FCFCF7F6BF529FA4
:10FCD0003888431C3B80FDF78BBA079A03EB8301FE
:10FCE00012F803B008010BEB8B0700EB870204EB63
:10FCF000020E9EF8123046F2244743F002018EF8BD
:10FD000012100020C2F20007049729F053FB43F2BF
:10FD1000901BC2F2000B049B002800F07B82DDF8F0
:10FD200074A146F24C429AF80030C2F20002062B4F
:10FD300002D80133DBB213704E9FDDF844A117F8EF
:10FD4000131001208AF8001029F04EFBFDF750BA7D
:10FD5000A2F10D0707EB4700359F0D2A07EB800B3B
:10FD60009BF80BA04AF0020C8BF80BC001F0A282AA
:10FD7000511ECAB21A700D3ADDF8D4A002EB420B44
:10FD80000AEB8B0393F80BC04CF00100D872FDF71F
:10FD900027BA079F864400209EF80A10B854FEF741
:10FDA00085BB0020DDF81CA058719AF80530FDF7DE
:10FDB000EDBE012A3FF49FAC04221A7024F092FF9A
:10FDC000FDF716BA529F3B88002B3DF411AA45F669
:10FDD000405A013BC2F2000AAAF80030FDF708BA07
:10FDE00007994B78022B7FF41DA8B4F9600043F209
:10FDF000901BC2F2000B002842F0DE820420049324
:10FE000029F012FA099B049F93F85120AF70ABF8C8
:10FE100060209AF80020FFF70BB840F05FF9FFF779
:10FE2000C6B8BAF9040202287EF731AAFEF760BA12
:10FE300098F80020092A7FF425ADDDF81CA09AF877
:10FE40000900032802F0F282DDF81CA09AF809E00C
:10FE5000BEF1030F02F0F9822B78012B02F0D98456
:10FE6000022B02F0D1840A2388F8003001F0DBB8BD
:10FE7000079FF87801287EF491AE14990F78002F2F
:10FE800001F0FD87DDF884A04CF2AE53BAF80020F3
:10FE9000C2F20003022A04BF052018803FF4D0AB51
:10FEA000142A02F06687C82A04BF4FF4FA771F802D
:10FEB0003FF4C6AB40F2F13B5A453FF6C1AB5100AF
:10FEC0001980FFF7BDBB03203FF00CFC03203FF07F
:10FED00037FCFFF767B806200121F4F7B7F90220D5
:10FEE0003EF0DAFBFFF757B829F064FA002800F07B
:10FEF000F884DDF844C143F263629CF80030C2F23A
:10FF00000002A3F1410A5FFA8AF7182F01F2C384B5
:10FF1000591CCBB21370DDF874A14E9F9AF80010F3
:10FF2000002007F8113029F05FFAFDF761B9DDF81C
:10FF30001CA09AF80630012B7EF43DAEFDF71CBAEA
:10FF4000969F40F2054200235A21772000974FF0F8
:10FF5000000A1CF0C3F84FF4617005F001F80220AC
:10FF60000021A9F800A0F4F771F914200121F4F799
:10FF70006DF9FDF73DB9DDF81CB09BF806A0BAF1AC
:10FF8000010F7EF428AD40F087F900283EF423AD40
:10FF90005C9F3B78002B3EF41EADDDF87CA19AF807
:10FFA000000000283EF417AD8E9F46F236433A78A3
:10FFB000C2F200034FFA82FEBEF1000F01DD013AEA
:10FFC0001A7041F0CBF998F80030FDF7D2B9DDF89E
:10FFD0001CA09AF80630022B7EF4E4ACFDF7CCB9F5
:10FFE000A3F10D0707EB4700359F152B07EB8002A8
:10FFF000D17A41F0020B82F80BB001F0F7835A1C62
:020000040801F1
:10000000D3B28AF800300D3BDDF8D4A003EB430BEC
:100010000AEB8B0C9CF80B0040F001018CF80B10E4
:10002000FDF7E6B8DDF8B8B09BF80030002B40F0E3
:10003000FB8498F8007046F2482A062FC2F2000AA4
:1000400002F0F985B4F9F021062A01F0DA820320E2
:1000500025F022F898F8003046F2482A012BC2F227
:10006000000A41F2C282052B00F04A830B2B01F0FB
:10007000E1820C2B40F04B83DDF8F8A19AF8007078
:10008000002F00F044838B9F46F228133A78C2F287
:100090000003082A3DF6ACA801321A70FDF7A8B893
:1000A000B4F90422DDF864A10B9F0AEB420BBBF804
:1000B0004400B4F9F0313880FEF71AB9099F397855
:1000C000042901F0BF830E2A01F0B883013A1A70A7
:1000D000FDF786B81971FEF70FBA4FF0020E83F8DC
:1000E00003E07EF474A9FDF783B8B4F89C10DDF842
:1000F00030B0ABF80410E5E5079F46F22443B87929
:10010000C2F2000301287EF462A902219971FEF770
:100110005EB9DDF81CA09AF807C0BCF1020F04BF5D
:100120000E9F3A70FFF773B8B4F90031092B01F351
:100130002880AB78012B02F26A800022104688F8F2
:10014000002024F06FFF98F80020FEF771BE002B0E
:1001500040F04A8494F806C2B4F8F02143F29013B8
:100160004CF00200062A84F80602C2F2000305D011
:10017000B3F8401208B2012801F08385B4F84012A8
:100180001A8A08B2034612B1002844F09981B4F9E2
:10019000602012B1012B44F09781B4F9B02012B164
:1001A000022B43F09483B4F90021002A3DF420A8E7
:1001B000032B18BF4FF0030A3DF41AA8042841F09E
:1001C0007885069F94F8F2B138784BF00201A4F8D4
:1001D000F00184F8F21141F0C1F801F071BD012184
:1001E000197024F0CDFCFDF703B8079F97F806C0FF
:1001F000BCF1010F7EF4F7AFDDF870A19AF8003082
:10020000002B3EF4F0AF5F9F387800287EF49AAC64
:10021000FEF7E9BF149F3A78002A00F0A784379FC1
:100220003A78002A40F0A284BBF900C19AF8001085
:10023000BCF10B0F02DD032903F07984092900F0DA
:100240009A842A7812B90A2902F07B820C2902F0DA
:10025000CB82022A76D04B1CDBB246F24821092B16
:1002600088F80030C2F2000102F05385032B9FBFD3
:1002700003EB830104EB011191F84E0040F0020002
:1002800098BF81F84E00002A71D1082B0CD1DDF8FF
:100290001CA046F2244C9AF808B0C2F2000CBBF144
:1002A000020F08BF8CF8082098F800100A2960D1C6
:1002B000079F46F22443BA7AC2F20003022A03F0EF
:1002C000AD84079F01EB81007A5C0B4602EB820C48
:1002D000010101EB8C00211891F812E0092B4EF07E
:1002E000030B81F812B07CF483AF032A02F03C8246
:1002F0009900CA1804EB0210B0F938E043F29012EA
:10030000BEF1040FC2F2000202F0EE81CB1804EB42
:10031000031393F82620987C42F0020193F83AB038
:1003200093F84E2040F0020C83F826104BF00200A8
:1003300042F0020183F812C083F83A0083F84E10AD
:10034000FCF756BF099F97F800E0BEF1040F82D07A
:10035000092902F2F6810131CBB2092B46F248217C
:1003600088F80030C2F2000180D10A20087098F8A5
:1003700000100429A5D1DDF81CA005229AF805C0BB
:1003800088F800200CEB8C0004EB800E9EF8A23164
:1003900043F003018EF8A211FCF72ABFB3F96020E5
:1003A000002A7FF4C1AE01238AF80020AB70FEF76B
:1003B0003FBDDDF850A24CF642629AF80000C2F24E
:1003C0000002002840F0828798F800C00121BCF1AB
:1003D000090F1CBF0B9F597311701CBF502139802E
:1003E000999F8920D82140F20542002300971BF0F5
:1003F00075FEFCF7FDBE02EB820C04EB0C1090F8CE
:1004000026E08B544EF0020280F82620FEF774B8E6
:100410003C2002973B9C3EF027F9DDF854A0BAF847
:10042000003099B2002940F04D87539F4BF67F5220
:100430003878C2F20002C30701F16183B4F9F031E8
:1004400040F0010AA3F10207784240EB0701042BB8
:1004500008BF41F0010182F800A0002942F0D080DD
:10046000032B02F0CD8098F80030DDF81CA003EBE0
:1004700083011AF803B00A010BEB8B0702EB87002C
:1004800004EB000C9CF812200B9F42F0020E072197
:100490008CF812E04FF0500E6973A7F800E0092BBA
:1004A0007CF496AE00219B9F0B4640F20A52E62058
:1004B00000971BF013FE98F8003046F2482A990086
:1004C00001EB030B04EB0B1CBCF91070C2F2000A29
:1004D0001A46002F01F068810A460299409FCDF824
:1004E000EC906191A946092B74D0D21804EB02104C
:1004F000028F43F2901511B2012918BF4FF0000A84
:10050000C2F2000518BFCDF828A000F01E85022910
:1005100000F05E83002A40F0AB83DDF850A046F285
:1005200032419AF80000C2F20001002840F09A849B
:1005300003EB830204EB021C9CF8240037F024F93F
:1005400098F800300546092B0A9000F0028403EB6E
:10055000830004EB001EBEF824305A1CAEF82420A1
:1005600000213170002D40F04A84284637F058FCB5
:100570003578002DFCD000203DF026FE962004F0BA
:10058000EFFC25F0B1F820F069FF46F22710C2F227
:1005900000000278052A00F06C8490F800C0BCF1DD
:1005A000040F42F0B28198F80030092B00F0668405
:1005B0009A0002EB030B04EB0B11888C0FFA80FE00
:1005C000BEF1010FDCBF00258D848CDD0238092BC4
:1005D00088848AD1DDF81CA09AF80950032D84D1B3
:1005E000B4F91CE3479D0EEB4E0B0EEB8B00291864
:1005F00091F803A015F800C08D78CDF8A0A191F86E
:1006000001E091F804A091F805B08879BD70C9792E
:10061000689D87F800C087F801E0FD7087F804A0A6
:1006200087F805B0B871F9715FE70220F3F712FEA1
:1006300000283EF413A9FEF70CB9729FDDF8DCA187
:100640003A7846F23D438AF80000C2F20003002ADD
:1006500040F0358601211970FCF7CABDB4F90823B2
:1006600043F2901E022AC2F2000E7EF41BAFBEF9C6
:10067000E0C2BCF1010F7EF415AFBEF950B1BBF181
:10068000000F7EF70FAF079F7B7A032B03F0B0813B
:10069000BEF8F4320FFA83FCBCF1010F43F3A481DE
:1006A000981EAEF8F402B4F8F4124B1CC8B2A4F8C9
:1006B000F4323DF0B5FA94F8F6B24BF0020284F849
:1006C000F62228F053FE00283CF492ADDDF89CA100
:1006D00000208AF80000FCF78BBDBBF9A0010428BC
:1006E0003CF7DEAAB4F84C70B4F89C30DDF830A0CA
:1006F0000A370A33AAF80070AAF80430FCF7DABA0D
:10070000DDF81CA09AF80510012900F0A587DDF896
:10071000E8A19AF8000010B10A2B01F0B98621F087
:1007200011FB48B198F8002032B9DDF81CA09AF806
:100730000010012902F0838021F0C6FA98F80030F9
:10074000002800F01284002B40F00F84DDF81CA07C
:100750009AF80070012F04F04A80DDF81CE09EF842
:10076000007047B9B4F9100043F290120128C2F2A8
:10077000000204F05380072B02F0E781A3F10B077E
:10078000F8B2012842F2A582062B02F03781052B30
:1007900043F0CA87DDF81CA09AF80510022901F081
:1007A0004B87B4F8F001042803F06B85062B03F0A7
:1007B0009387DDF81CA003EB83071AF803103801B8
:1007C00001EB810C00EB8C02A018B0F810E043F2B2
:1007D00090120FFA8EF7002FC2F2000243F36B87DC
:1007E0000EF1FF371FFA87FE062BA0F810E003F08A
:1007F0005487022024F050FC98F80030012B43F27B
:10080000DA86072B03F0BC86062B03F053850D997F
:100810000878012842F24680052B01F02387062B39
:1008200002F04A80052B01F02587092B20D1B4F96D
:10083000E00243F29013C2F2000330B9B3F8082388
:10084000571FB9B2012943F21180B4F908A343F24A
:100850009012BAF1040FC2F2000203F0DE84DDF858
:100860001CC09CF80970022F03F0D38498F8003064
:10087000990001EB030E04EB0E12977C47F0020087
:1008800092F82670907447F0020082F8260092F8E1
:100890003A7092F84E0047F0020E40F0020B042727
:1008A00082F83AE00A9782F84EB0DDF81CA01AF8F8
:1008B00003B0CB1818010BEB8B0100EB810204EBAA
:1008C000020BBBF810A00FFA8AF3022B7CF77CAC6A
:1008D000002025F0ABFCC0EB0A02ABF81020FCF7BF
:1008E00073BC98F8003046F2482A062BC2F2000A80
:1008F00001F06784B4F9F071062F01F0DE82032065
:1009000024F0CAFB98F8003046F2482A012BC2F2C4
:10091000000A41F2F081052B01F03E827A9F38787F
:1009200010B10A2B00F03D850B2B01F06A810C2BD6
:1009300040F03F857E9F3B78002B00F03A85DDF844
:100940002CA246F228139AF80020C2F20003002AD3
:100950003CF44EAC501E1870FCF74ABCDDF838A1D0
:10096000519F20238AF800308AF802308AF8043038
:100970008AF806308AF808308AF80A308AF80C308B
:100980008AF80E303B70FCF733BCB4F900C1BCF1FF
:100990000B0F7EF768A9DDF850A09AF80020002A16
:1009A0007EF461A95A9F4CF2A45B3B78C2F2000B23
:1009B000002B08BF01228BF80020FCF719BC0E2B7E
:1009C0007EF4A7AF0F2388F80030FEF7A2BF012AFC
:1009D0007EF4B8AADDF81CA00A22002388F80020C3
:1009E0008AF80A30FCF704BCA2F10A07D7F1000C20
:1009F0004CEB07000C2A08BF40F0010010B90D2A8B
:100A00007EF433AC00293EF430ACFEF72CBC012060
:100A100028F0D0FC00283EF4EBAC504651460322AF
:100A20001EF0C2FAFEF7E4BC98F8000006287FF436
:100A300009AB079A9779012F7FF404AB3FF02CFCA8
:100A400000283FF4F6AADDF870A19AF800100029FA
:100A50003FF4EFAA5F9F3B78002B3FF4EAAADDF852
:100A600038A246F236439AF80020C2F2000350B290
:100A700004283FF7A6AA01321A70FFF7A2BA3C2059
:100A800002970A9C3DF0F0FDDDF854A0BAF8000092
:100A900082B2002A7CF4A8AB359F539997F853B0E3
:100AA00097F85F700A786197359FDDF8D4A097F8C2
:100AB0006B704BF67F53689798F800709AF817C0E0
:100AC0006D9757079AF823E09AF82F009AF83B1091
:100AD000C2F200039AF847A002F16D80619F41F0D5
:100AE000020142F0040240F002003B9147F0020193
:100AF000359F4EF0020E0A901A7068986D9B87F829
:100B000023E03B9ADDF828E04CF0020C4AF0020AA0
:100B10004BF0020B40F00200092B87F817C087F852
:100B20002FE087F83B2087F847A087F853B087F875
:100B30005F1087F86B0006D0DDF82CA00922502347
:100B40006A73AAF800309D9F9120D82140F2054297
:100B5000002300971BF0C2FA287B40F06001297344
:100B6000FCF742BB28F0BCFCFDF717BA9AF800105E
:100B700009297FF466AB079F787A03287FF4A1AB3D
:100B800043F26400C2F2000037F0A2F900B101386C
:100B9000B4F91C1343F290138842C2F2000343F3EA
:100BA000CD86A3F81C03FCF723BBA3F1300C5FFA3E
:100BB0008CF7082F00F2FC860133DBB21370FEF7CE
:100BC000B3BDDDF8F4C002238CF80030FDF768BE39
:100BD000149D46F232422878C2F20002002840F00A
:100BE000A28603EB830204EB021E9EF824003DF074
:100BF00017F898F80020DDF81CB043F290131BF8AA
:100C000002A00A90BAF1030FC2F2000300F04E8670
:100C100002EB820503EB051CBCF82400411CACF878
:100C20002410DDF848B2B4F90402DBF8003000EB20
:100C3000800103EB810ABAF80E20DDF878E243F276
:100C40009015AEF8002028F091FB98F80030C2F221
:100C5000000503EB830C05EB0C1BBBF838200028C8
:100C60003FF458AC679D00212970002A3FF455AC31
:100C7000619D12B2042A02954D46DDF8EC9040F0D9
:100C8000D380B4F81C7301203B9724F0E5FEDDF817
:100C900088A143F290139AF8002009210A90C2F229
:100CA0000003619088F800108AB3DDF800E1DDF8F8
:100CB00000B19EF806709BF804A068973B9F9BF8D4
:100CC00000009BF801109BF802209BF803C0FFB2C4
:100CD0009EF805B09EF807E0A3F81C73509FCDF86E
:100CE000B4E187F804A0DDF8B4E1DDF8A0A1387024
:100CF0007970BA7087F803C087F805B087F806A046
:100D000087F807E0079F03237B7224F071FF94F8B4
:100D1000E21294F8F63294F80AB341F0020043F07C
:100D20000201619B43F290124BF0020CC2F20002EE
:100D300084F8E20284F8F61284F80AC3002B3CF42B
:100D400057AA98F80030502707FB032ABAF9382031
:100D50006AE0DDF81CA09AF8091003297FF4F7ABCC
:100D6000E0B9FB7997F803E068934E9B97F800B0E1
:100D700097F801A097F802C038797979BA7983F8A1
:100D800006E0DDF8A0E183F800B083F802A083F864
:100D900004C0187299721A7383F80EE0B4F81C2319
:100DA00043F2901311B20D29C2F2000301F3C08483
:100DB0000132A3F81C2343F26400C2F2000037F0B2
:100DC00087F8B4F81C2313B203EB430A03EB8A0C35
:100DD000DDF81CA11AF80C000AEB0C0120B1DFF8B9
:100DE000CCBB59457FF4BCAB002B7FF7B9AB511E90
:100DF000A4F81C1300213170002D3FF4B6AB4D4612
:100E000061992F780291DDF8EC90002F42F08884F0
:100E100098F8003003EB830004EB001ABAF838208E
:100E200012B2042A3FF42DAF052A03F09E81062A50
:100E300003F07D81032A01F073860A9F072A08BF09
:100E4000C8270A97DDF81CE01EF803A0BAF1030FCB
:100E500001F03E86DDF828A05FFA8AF036F0E0FF68
:100E6000FCF7B6B90A7040F0FBFC98F80030FFF7C9
:100E70005FBB98F800309A00FFF735BB0799487AB6
:100E800003287FF495ABB4F81CA343F2901E0FFA2D
:100E90008AF5002DC2F2000E42F307840AF1FF32F8
:100EA00090B202B24FEA420B0BEB020C479902EBF5
:100EB0008C05495DAEF81C03DDF81CE10A9197F83A
:100EC00000C07544DDF828E045F22C61F445C2F21B
:100ED000000142F0F48391F801C095F801E0F44577
:100EE00042F0ED8391F802C095F802E0F44542F03B
:100EF000E683C978ED78A94242F0E1830BEB020565
:100F0000479902EB850289183D7991F804B045F2C2
:100F10002C625D45C2F2000242F0D183557991F80E
:100F200005C0654542F0CB8392F806B091F806E023
:100F3000F34542F0C483002803F04984AAF102007B
:100F4000A4F81C032422FFF745BB90F8240036F0D8
:100F500075FA98F800300A9003EB830105EB011C49
:100F6000BCF8382011B2FFF7D2BA052B00F0CA83C3
:100F70000C2B40F2DE83A3F10D02DDF8D4A04FEA82
:100F8000420C0CEB020B0AEB8B00C77A90F805A021
:100F900047F00201C172BAF1000F01F00E810AF1AF
:100FA000FF3E5FFA8EF14171359F0CEB020E07EBAD
:100FB0008E0090F804A043F22410AAF1020B5FFA0D
:100FC0008BFEBEF1010FC2F2000041F21082012936
:100FD00001F019820B2901D0990066E495F82C7074
:100FE00046F204219F42C2F2000102F0AC850CEBF4
:100FF0000201DDF824C0359F9CF800B007EB810AA0
:101000008AF804B0990050E401201870FCF701B987
:10101000002A40F0EA8688F800201346FEF742BC1A
:10102000082388F80030079F03EB830117F803C0FB
:101030000B010CEB8C0003EB800204EB020B9BF822
:10104000121041F003008BF81200FCF7C9B8032B13
:101050007EF435AA989F44F215633A78C2F20003F1
:10106000012A43F23A8000221A70A4F81421FCF7F6
:10107000BFB8079F97F805E0BEF1010F7EF412AAF2
:10108000B4F9A021082A03F08780DDF8BCA19AF802
:10109000001001297EF406AA042A3EF703AA4A9FFB
:1010A0003B78002B42F09B80DDF890C146F245472B
:1010B000C2F2000739709CF800A0769F042A87F8D6
:1010C00000A001D13FF06AFD27F07AFF94F8A21149
:1010D00094F8B63194F8CA2194F8DEA1B4F940B27C
:1010E00041F0020E43F0020042F002014AF0020316
:1010F000BBF1040F84F8A2E184F8B60184F8CA11A8
:1011000084F8DE3102F0738201203FF0E7F9DDF868
:1011100028A19AF8000002287CF46AA8B4F9A0215A
:10112000042A7CF465A83FF039FDFCF761B8002A79
:101130007DF408AF079F46F22443FA78C2F2000319
:10114000012A7DF4FFAE032088F80000DA70FCF776
:101150004FB8079FB97901297EF412AADDF870A172
:101160009AF80030002B3EF40BAA5F9F38780028D5
:101170007DF4E7AFFEF704BA0E2288F80020FEF7F0
:10118000C8BB0D2B00F3B285012288F80020FDF7C3
:101190004FBE8A9F44F204623B78C2F20002002BE9
:1011A00001F00A84DDF8D0A147F204129AF8001089
:1011B000C2F20002012901F0DE81012B01F0C3819E
:1011C000B4F95021002A04DDDDF86CC101278CF848
:1011D00000708A9F00223A7046F6B8235F9FC2F2E1
:1011E000000394F8EC0094F83C11DDF8D0A103F56D
:1011F000C66B3A70029F9870D9708AF8002085F803
:1012000026200BF1040E04331A1D9870D970083390
:1012100073459070D170F7D1297B46F2042A41F0D2
:10122000600028730297C2F2000A28F09FF858B1B4
:101230003D9F02224FF0000300203A70A4F81832BC
:101240003FF088F8AAF8180040F088F8B4F9400296
:10125000042801F0738101203FF040F9B4F9F01146
:1012600079B1609BB5F818E0188846F2042AC2F2FA
:10127000000A962885F827E098BFAAF8180002F21D
:10128000A98398F80030072B01F0A983079F03EB8F
:10129000830117F803E00B010EEB8E0003EB8001D6
:1012A00004EB010B9BF8122042F0020C8BF812C0E9
:1012B000FEF72FB915221A700822FEF75DBD1870CF
:1012C000FBF796BF98F80030FFF7E9B898F8007080
:1012D0001170092F06D00B9A02204FF0500A587354
:1012E000A2F800A09A9F8920D82140F2054200234D
:1012F00000971AF0F3FEFBF77BBF079FB879012830
:101300007EF411A83EF0C8FF002801F013815C9F15
:101310003A78002A01F00E815F9F3978002901F0A8
:101320000981DDF8B8A046F2354B9AF80030C2F2D8
:10133000000BD3F1010038BF00208BF80000FBF751
:1013400068BF079946F224404979C2F20000032998
:101350007DF49AA800214171FDF796B8022901F0A9
:10136000C280099F00233B7023F0BCFCFBF740BF09
:10137000B4F9101043F29013C2F20003002940F0B8
:1013800052840420049327F04FFF099F049A97F892
:1013900050B00120A2F810B0A8709AF80020FDF714
:1013A00047BDDDF81CA09AF80AE0BEF1010F42F239
:1013B000388220F0C7FC38B198F8001021B9079F97
:1013C0003A78012A02F0908620F07EFC98F800A07E
:1013D000002800F0B387BAF1000F40F0AF87079FF5
:1013E0003878012802F03A8495F825301BB1BAF11B
:1013F000070F02F07484BAF10C0F00F28784BAF17F
:10140000000F01F04683BAF1010F01F0D081BAF16B
:10141000020F01F0BB81BAF1030F01F03282BAF181
:10142000070F02F06684AAF10B01C8B2012841F24D
:101430009D87BAF1060F01F05087BAF10A0F02F04A
:101440005185BAF1050F02F0A98107990AEB8A03C9
:1014500011F80AB01F010BEB8B0007EB8002A118FB
:10146000B1F810C0B1F908300FFA8CF7981E43F2AA
:1014700090118742C2F2000114DA00200391CDF8E6
:1014800010C024F0D3FE502202FB0AF31421DDF831
:1014900010C001FB0B3700EB0C02039800EB070CAC
:1014A000ACF81020BAF1000F41F06E82BBF1000FD2
:1014B00006D1238A002B01F07287042B01F05F8292
:1014C000B4F8F011042901F00285BAF1060F01F019
:1014D0003686079B0AEB8A0213F80A30100103EBE9
:1014E000830700EB870104EB010BBBF81010BBF97D
:1014F00008E00FB243F29012BE45C2F2000241F37F
:101500009C85502707FB0AFC4FF0140000FB03CE1C
:10151000013189B27244BAF1060F118201F07F8560
:10152000022023F0B9FD98F800A0BAF1010F41F2B2
:10153000C385BAF1050F01F0BB84BAF1070F01F0C2
:10154000F884BAF1060F01F0DC840D9F3878012889
:1015500041F27784BAF1060F01F07F84BAF1050FEA
:1015600002F03A81BAF1090F02F0E7800AEB8A0A29
:1015700004EB0A1C9CF812209CF826B042F00200F2
:101580009CF83A308CF812009CF84E004BF00201A7
:101590008CF8261043F0020240F002018CF83A2049
:1015A0008CF84E10FBF718BEB4F904A2BAF1090F7B
:1015B0003CF747A90323FCF747B9197040F076FEC2
:1015C00098F80020092A05D00B9905274FF0500301
:1015D0006F730B80979F9920D82140F2054200231A
:1015E00000971AF07BFDFBF7E9BD079FFA5C012A23
:1015F0007EF43CAD002027F017FE9AF80030FEF78D
:1016000032BD98F80030002B40F0C185DDF81CC0D9
:101610009CF80070032F7EF41AAD489944F20263DF
:101620000A78C2F200032D2A7EF611AD901E1870C2
:10163000FEF70DBDDDF8C8A19AF800705FB3879F73
:1016400044F20D633A78C2F20003012A3BF6D0ADB2
:1016500001321A70FBF7CCBDB4F9A00108287FF461
:1016600056A8789F3B78002B42F09C82DDF800A2C0
:101670009AF80030002B02F084826A9F43F2646281
:101680003B88C2F20002B3F5487F82F067821433D0
:101690001380FBF7ADBDDDF8DCA19AF8000000284F
:1016A0003FF435A87B9F46F23C433A78C2F20003F0
:1016B000002A3BF49DAD511E1970FBF799BD9AF8B5
:1016C0000910032901F0FE87DDF888A18AF80020BF
:1016D000002024F0C1F9709F00233B700A9036F07F
:1016E0009FFBFBF767BD501EDDF838A1C7B21AF8A3
:1016F00017C01F70519F032087F800C027F074FEA9
:10170000FBF776BD079B5B79002B41F00983B4F9A9
:10171000A07167B9A44B029F03F5B4614FF4006256
:10172000981C5A8004338B424280F7D1029798F874
:101730000030002B3FF411A8012B01F09882022BFE
:1017400001F0F080032B7FF416A8079FF978002999
:101750007FF414A8B4F9000143F290120128C2F2F8
:1017600000027FF40BA8B2F940A2BAF1030F14D122
:101770006F890223A2F84072B5F806C02F8982F85B
:10178000423282F8563282F86A32AA886F81A5F80E
:1017900008C0EA80A9803EF0A1FE032023F046FDA8
:1017A00098F80030FEF7E7BF079FFB5C032B02F0C1
:1017B0006980891804EB011EBEF9380007283FF63E
:1017C00049AB0FF2080A5AF820F000BF9936010819
:1017D00059360108473601080D360108A5380108B9
:1017E0009D3801089D380108933801080D238AF8B7
:1017F00000300023FEF708BC5A9F3B78002B3BF4D7
:10180000BBADBAF8303319B200297BF7B5AD013B57
:101810001FFA83FB0FFA8BF2022AAAF830B37BF788
:10182000ABAD24F003FDC0EB0B0BAAF830B3FBF714
:10183000A3BDDDF8D4A000228AF80B201020187078
:10184000FBF7CEBC0D2AF4D00F2A7EF43FAC359FB7
:101850000D2197F823B019704BF0030C87F823C0C3
:10186000FBF7BEBCBBF9A0B1BBF1040F3EF71DAA4C
:10187000DDF8F0A0BAF80030002B00F00F87012B44
:101880007EF420AAB4F84C30DDF830E00A33AEF82C
:101890000030FEF717BAA3F13107F8B2082800F2BA
:1018A000C384013BDBB21370FEF735BBB3F81C23D6
:1018B0000FFA82FABAF10D0F01F31A820132A3F87E
:1018C0001C23FFF7AEB9032B7DF4FDACB4F900E1A6
:1018D000BEF1000F3DF4F7AC03293DF4F4ACB2F9CE
:1018E0000011B5F806E0B5F808B0A2F840326B89EF
:1018F0000D29A5F804E0A5F806B02B81688101DC6C
:101900000B2902D10027A4F840720C2902D00A2921
:1019100042F0DE834FF0010AA4F840A201203EF01D
:10192000DDFDFDF7D6BC002313703FF099FF98F85A
:101930000030FFF756B90C2B40F2B986012A00F0AF
:101940002086022A14D1359FF97AFA7D97F8233040
:1019500097F82FE041F0020042F0020143F002024A
:101960004EF00203F872F97587F8232087F82F30BC
:1019700095F83500092888F800007BF439AC94F814
:10198000E20294F8F62294F80A3340F0020142F0A1
:10199000020B43F0020C84F8E21284F8F6B284F8E9
:1019A0000AC3FBF725BC00BFD26400203C9F01089E
:1019B000A3F1200EBEF13F0F3DF6B6AE0FF2040AC2
:1019C0005AF82EF0D131010829F7000829F700084C
:1019D00029F7000829F7000829F70008C73101088E
:1019E00029F70008B9310108AF31010829F70008CB
:1019F00029F7000829F70008A131010829F7000894
:101A000029F7000829F7000829F7000829F7000836
:101A100029F7000829F7000829F7000829F7000826
:101A200029F7000829F700089331010829F7000871
:101A300029F7000829F7000829F7000829F7000806
:101A40008931010829F700087F31010829F70008CA
:101A500029F7000829F7000829F7000829F70008E6
:101A600029F7000829F7000829F7000829F70008D6
:101A700029F7000829F7000829F7000829F70008C6
:101A800029F7000829F7000829F7000829F70008B6
:101A900029F7000829F7000829F7000829F70008A6
:101AA00029F7000829F7000829F7000829F7000896
:101AB00029F7000829F7000829F7000829F7000886
:101AC0001938010803225A7224F092F8FDF785BEF6
